:1000000002004A3200000000000000320000000040
:10001000000000320000000000000032000000007C
:100020000000003200000000000000000000C39546
:10003000F02212002E60044002E42274012278FBB8
:100040007903D8FED9FCD5E0F522787FE4F6D8FD17
:1000500075812575200075A0FFD2B1D2B0C290C2C3
:1000600091C292D205C283D296D295D285D282D243
:1000700081D280D287D2B6C2B5C2B3C2B4C296A270
:1000800005920450030200A3A2A0920450030200B0
:10009000A311D2311931A7740A113EC280D205C210
:1000A00095D283A2A0920440030200C9A205920443
:1000B00040030200C911D2316031A7740A113ED247
:1000C00080C205C296D295C283D29602007DC2AF8D
:1000D00080FE90020B85822385832475220175F0B2
:1000E00015E52211327003020116852382852483CF
:1000F0007821E493A3858223858324F6E521B40146
:1001000002800302010B31EE02010D31FA0522E5F6
:100110002260030200DE51012290022085822385A5
:10012000832475220175F015E52211327003020156
:100130005D8523828524837821E493A385822385AA
:100140008324F6E521B40102800302015231EE025C
:10015000015431FA0522E5226003020125510122F2
:1001600090023585822385832475220175F015E57B
:1001700022113270030201A4852382852483782111
:10018000E493A3858223858324F6E521B4010280CC
:100190000302019931EE02019B31FA0522E522604A
:1001A0000302016C51012290024A85822385832437
:1001B00075220175F015E522113270030201EB85FD
:1001C00023828524837821E493A385822385832455
:1001D000F6E521B4010280030201E031EE0201E202
:1001E00031FA0522E52260030201B3510122D2B4A3
:1001F00000D2B500C2B500C2B422D2B500C2B5006B
:100200002200D2B300C2B300C2B422010000000039
:1002100000000001000000000000000000000000DD
:1002200001000000000100010100010001000000C8
:1002300000000000010100000000010001010001B8
:1002400001010100010101010001000100000000A5
:10025000000000000000000100000100000100009B
:00000001FF
